:0400000086EF00F097
:10000800FACF23F0FBCF24F0E9CF25F0EACF26F092
:10001800E1CF27F0E2CF28F0D9CF29F0DACF2AF0C4
:10002800F3CF2BF0F4CF2CF0F6CF2DF0F7CF2EF046
:10003800F8CF2FF0F5CF30F037C031F038C032F0BC
:100048003FC033F040C034F041C035F042C036F014
:1000580013EE80F0F2AC2DD00E01C0B3C8A309D0C6
:1000680001D827D005000001FA6ECB51FD6ECC51A6
:100078001BD0C0A102D0C8B1F3D7C0B9C8A909D054
:1000880001D817D005000001FA6EF151FD6EF2514A
:100098000BD0C0BBC8AB0DD001D80BD005000001F8
:1000A800FA6EEF51FD6EF051FE6EF850FF6EFA5089
:1000B800120036C042F035C041F034C040F033C0C1
:1000C8003FF032C038F031C037F030C0F5FF2FC0F4
:1000D800F8FF2EC0F7FF2DC0F6FF2CC0F4FF2BC091
:1000E800F3FF2AC0DAFF29C0D9FF28C0E2FF27C0E2
:1000F800E1FF26C0EAFF25C0E9FF24C0FBFF23C0BB
:10010800FAFF110013EE00F0B2EF0AF00A0EE12632
:10011800000EE222F20EE3CFD9FFF30EE3CFDAFFAF
:10012800DECFF6FFDDCFF7FF0800F550250AD8A48B
:10013800BED1F20EE3CFD9FFF30EE3CFDAFFDE2A0A
:10014800000EDD22000E0001B86F000EB76FB7C0B9
:10015800CDF0B969BA69F20EE3CFD9FFF30EE3CF58
:10016800DAFFDECF41F0DDCF42F0FD0E42C0E3FF03
:10017800FC0E41C0E3FFE150FC0FD96EE250DA6E8D
:10018800FF0EDA22DECFF6FFDDCFF7FF0800F550CD
:10019800640AD8B410D0E150FC0FD96EE250DA6E80
:1001A800FF0EDA22DECFF6FFDDCFF7FF0800F550AD
:1001B800690AD8A4AED0F00EE3CFD9FFF10EE3CF91
:1001C800DAFF020EDE5E000EDD5ADECF41F0DDCF33
:1001D80042F041C0D9FF42C0DAFFDECF41F0DDCFA7
:1001E80042F0F80E41C0E3FFF90E42C0E3FFFC0EF7
:1001F800E350010F416EFD0EE3CF42F0000E4222A4
:10020800F20EE3CFD9FFF30EE3CFDAFF41C0DEFFF2
:1002180042C0DDFFFE0EE36AE38AF90EE3AE03D0C7
:10022800426A422A01D0426AFF0E42C0E3FFFE0E34
:10023800E306FE0EE350416E426AC00E4124D96EB9
:10024800010E4220DA6E0A0EE66E000EE66EF60E1B
:10025800E3CFE6FFE3CFE6FF63EC04F037C0E6FF49
:1002680038C0E6FF83EC0BF03750300FDF6E0A0E14
:10027800E66E000EE66EF60EE3CFE6FFE3CFE6FF8E
:10028800CAEC03F0F80E37C0E3FFF90E38C0E3FFFD
:10029800F80EE3CF37F0F90EE3503710D8B404D096
:1002A800FE0EE350D8A4C3D7FE0EE350D8B429D02D
:1002B800FF0EE350D8B425D0FE0EE306FE0EE35041
:1002C800416E426AC00E4124D96E010E4220DA6E98
:1002D8002D0EDF6E16D0F40EE3CFE6FFE3CFE6FF78
:1002E800FC0EE32AE304416E426AC00E4124D96E33
:1002F800010E4220DA6EDF50E66E000EE66EE3EC89
:1003080004F0FE0EE3CF37F0200E3718D8B4E6D04D
:10031800E2D7FF0EE36AF20EE3CFD9FFF30EE3CF85
:10032800DAFFDECFF6FFDDCFF7FF0800F550730ADE
:10033800D8A40DD0F20EE3CFD9FFF30EE3CFDAFF46
:10034800DE2A000EDD22FF0EE36AE32A46D0F20E13
:10035800E3CFD9FFF30EE3CFDAFFDECFF6FFDDCF31
:10036800F7FF0800F5506C0AD8A437D0F20EE3CF97
:10037800D9FFF30EE3CFDAFFDECF41F0DDCF42F055
:10038800010E4126000E422241C0F6FF42C0F7FF8F
:100398000800F5506C0AD8A420D0F20EE3CFD9FF9C
:1003A800F30EE3CFDAFFDECF41F0DDCF42F0020EED
:1003B8004126000E422241C0F6FF42C0F7FF080066
:1003C800F550730AD8A409D0F20EE3CFD9FFF30E83
:1003D800E3CFDAFF030EDE26B4D7FF0EE350D8B41E
:1003E8005CD0F00EE3CFD9FFF10EE3CFDAFF020EB7
:1003F800DE5E000EDD5ADECF41F0DDCF42F041C0B7
:10040800D9FF42C0DAFFDECF41F0DDCF42F0F70E70
:1004180042C0E3FFF60E41C0E3FF2AD0F40EE3CF5B
:10042800E6FFE3CFE6FFF40EE3CFF6FFF50EE3CFEA
:10043800F7FF040EF76403D00800F55005D0F6CF97
:10044800E9FFF7CFEAFFEF50E66E000EE66EE3EC49
:1004580004F0F60EE350010F376EF60E37C0E3FFD7
:10046800376AF70EE3503720376EF70E37C0E3FFD1
:10047800F60EE3CFF6FFF70EE3CFF7FF040EF764AF
:1004880003D00800F55005D0F6CFE9FFF7CFEAFF13
:10049800EF500009D8B422D0C1D7F20EE3CFD9FF6C
:1004A800F30EE3CFDAFFDE2A000EDD2217D0F40EBA
:1004B800E3CFE6FFE3CFE6FFF00EE3CFD9FFF10E7F
:1004C800E3CFDAFFDECFF6FFDDCFF7FF0800F55008
:1004D800E66E000EE66EE3EC04F0DFD7F00EE126E0
:1004E800FF0EE22212000E6E0A0E0E6412D0E50E06
:1004F800E66E3F0EE66E440EE66E000EE66EC70E22
:10050800E66E3F0EE66E720EE66E3F0EE66E8FECFE
:100518000AF0010E016412D0E50EE66E3F0EE66E9B
:10052800450EE66E000EE66EC70EE66E3F0EE66EF0
:100538005B0EE66E3F0EE66E8FEC0AF0070E026465
:1005480012D0E50EE66E3F0EE66E460EE66E000E23
:10055800E66EC70EE66E3F0EE66E9D0EE66E3F0E29
:10056800E66E8FEC0AF00250020DF3CF04F0F4CFE0
:1005780005F00150100DD00EF324066E3E0EF42047
:10058800076E04500624096E055007200A6E0E50A7
:10059800030DAF0EF324F66E3E0EF420F76E09003D
:1005A800F5CF0BF00A00F5CF0CF00E50030D020E3C
:1005B800F326000EF422AF0EF324F66E3E0EF4205E
:1005C800F76E0800F5CF04F01F0E041609C0F6FFF9
:1005D8000AC0F7FF0800F5CF05F005500F0B066EAF
:1005E80006500402F3500B26F4500C220BC0D9FF1E
:1005F8000CC0DAFFDF50086E09C0F6FF0AC0F7FF2B
:100608000800F5CF04F004380F0B056E010E066ED6
:10061800052A02D0D8900636052EFCD706500D6E56
:100628000350D8B403D00D50081203D00D50FF0A60
:1006380008160BC0D9FF0CC0DAFF08C0DFFF120094
:100648000D6E0A0E0D6412D0F60EE66E3F0EE66EC3
:100658001E0EE66E000EE66EC70EE66E3F0EE66EE6
:10066800720EE66E3F0EE66E8FEC0AF0010E016424
:1006780012D0F60EE66E3F0EE66E1F0EE66E000E08
:10068800E66EC70EE66E3F0EE66E5B0EE66E3F0E3A
:10069800E66E8FEC0AF0070E026412D0F60EE66ED4
:1006A8003F0EE66E200EE66E000EE66EC70EE66E94
:1006B8003F0EE66E9D0EE66E3F0EE66E8FEC0AF07C
:1006C8000250020DF3CF03F0F4CF04F00150100DE7
:1006D800D00EF324056E3E0EF420066E035005245A
:1006E8000B6E045006200C6E0D50030DAF0EF32454
:1006F800F66E3E0EF420F76E0900F5CF07F00A00FB
:10070800F5CF08F00D50030D020EF326000EF4226B
:10071800AF0EF324F66E3E0EF420F76E0800F5CF08
:1007280003F01F0E03160BC0F6FF0CC0F7FF0800FE
:10073800F5CF04F004500F0B056E05500302F3507B
:100748000726F450082207C0D9FF08C0DAFFDF5097
:10075800096E0BC0F6FF0CC0F7FF0800F5CF03F0D9
:1007680003380F0B046E010E056E042A02D0D890D0
:100778000536042EFCD705500A6E09500A140009E4
:10078800D8B402D0010E1200000E1200E652E65252
:10079800E652E652FE0EE36AF90EE3AE09D0F80E11
:1007A800E36CF90EE31ED8B0E32AFE0EE36AE32AEF
:1007B800FB0EE3AE08D0FA0EE36CFB0EE31ED8B0D6
:1007C800E32AFE0EE370FC0EE36AFD0EE36AF80E00
:1007D800E3CF37F0F90EE3503710D8B45BD0FF0EF3
:1007E800E36A10D0F80EE350D890E834376EF80E6C
:1007F80037C0E3FFF90EE350E834376EF90E37C01F
:10080800E3FFFF0EE32AF90EE3AEECD7FC0EE3504C
:10081800D890E834376EFC0E37C0E3FFFD0EE35086
:10082800E834376EFD0E37C0E3FFF80EE3CF41F032
:10083800F90EE3CF42F0FA0EE3CF3FF0FB0EE3CF21
:1008480040F041503F5C42504058D8A014D0FA0EB6
:10085800E350376EF80EE350375EFA0E37C0E3FF09
:10086800FB0EE350376EF90EE350375AFB0E37C0D4
:10087800E3FFFC0EE380D890F90EE332F80EE33282
:10088800FF0EE350376E010E375EFF0E37C0E3FFF1
:10089800D8A4BCD7FE0EE350D8B406D0FC0EE36C47
:1008A800FD0EE31ED8B0E32AFC0EE3CF37F0FD0EB1
:1008B800E3CF38F0F80EE126FF0EE2221200E652EE
:1008C800E652FE0EE36AFD0EE3AE09D0FC0EE36CC1
:1008D800FD0EE31ED8B0E32AFE0EE36AE32AFB0E00
:1008E800E3AE06D0FA0EE36CFB0EE31ED8B0E32AA3
:1008F800FA0EE3CF37F0FB0EE3503710D8B44AD0E6
:10090800FF0EE36A10D0FA0EE350D890E834376E41
:10091800FA0E37C0E3FFFB0EE350E834376EFB0EE8
:1009280037C0E3FFFF0EE32AFB0EE3AEECD7FA0E67
:10093800E3CF41F0FB0EE3CF42F0FC0EE3CF3FF0F4
:10094800FD0EE3CF40F041503F5C42504058D8A0E4
:1009580012D0FC0EE350376EFA0EE350375EFC0EF1
:1009680037C0E3FFFD0EE350376EFB0EE350375AF6
:10097800FD0E37C0E3FFD890FB0EE332FA0EE332E8
:10098800FF0EE350376E010E375EFF0E37C0E3FFF0
:10099800D8A4CDD7FE0EE350D8B406D0FC0EE36C35
:1009A800FD0EE31ED8B0E32AFC0EE3CF37F0FD0EB0
:1009B800E3CF38F0FA0EE126FF0EE2221200FC0E19
:1009C800E3CF37F0FD0EE3503710D8B408D0FC0E53
:1009D800E3CF37F0FD0EE3503710D8A406D0FE0E53
:1009E800E350E66EEBEC0CF064D0FC0EE3CF41F084
:1009F800FD0EE3CF42F0090E4124D96E000E4220CD
:100A0800DA6EDE50DE10D8B422D0FC0EE3CF41F00F
:100A1800FD0EE3CF42F0090E4124D96E000E4220AC
:100A2800DA6EFC0EE3CF41F0FD0EE3CF42F0020E8A
:100A38004124E96E000E4220EA6EDE50EE5CEE5074
:100A4800800A376EDE50800A3758D8B032D0FC0E94
:100A5800E3CF41F0FD0EE3CF42F0020E4124D96E00
:100A6800000E4220DA6EDECF41F0DDCF42F0FC0E00
:100A7800E3CFD9FFFD0EE3CFDAFFDECF3FF0DDCFC6
:100A880040F041503F24D96E42504020DA6EFE0EAD
:100A9800E3CFDFFFFC0EE3CF41F0FD0EE3CF42F0E2
:100AA800020E4124D96E000E4220DA6EDE2A000EB4
:100AB800DD22E552E552E552E5521200200E1360A0
:100AC8006CD01450070B0E6E15C00FF013502AECA3
:100AD80007F0120084EC0DF00009D8A404D013C06C
:100AE800BDF014C0BEF084EC0DF0166E16B00ED03A
:100AF8000001BE31E832E8320F0B046EBE51070B1D
:100B08006CEC0CF004C0BFF005C0C0F084EC0DF034
:100B1800166E010E16161650BF0FD96EDA6A1550EA
:100B2800E96EEA6ADFCFEFFF84EC0DF0166E16A0CF
:100B38003BD0010E166E0001BE31176E173217300A
:100B48000F0B176E16501726173617361736BE5165
:100B58001718870B1718BE6FBE31E832E8320F0B33
:100B6800186E070E186420D0870EBE17010E166E79
:100B7800BE51070B176E16501726BE511718F80BE3
:100B88001718BE6FBE51070B186E010E18640CD0F3
:100B9800F80EBE1709D0000E12001350210AD8B45F
:100BA80099D7030AD8A4F7D7010E1200110E000135
:100BB800906105D000EC0DF00009D8B41200100EB9
:100BC8000001906112D000EC0DF00009D8B40DD0EE
:100BD80027EC0CF000019051020DF350700FD96E04
:100BE800DA6ADAC0DEFFDBC0DDFF0001902B0F0EF2
:100BF800906501D0906B9051600FD96EDA6ADF5022
:100C08003EEC09F0080EE66E000EE66E000190510B
:100C1800E66E000EE66ECAEC03F037500001E66F90
:100C28009051070BE76FE751020DF3CFDFF0F4CFD8
:100C3800E0F0E651100DD00EF324E16F3E0EF420E3
:100C4800E26FDF51E125E36FE051E221E46F010E2D
:100C5800E327000EE423E3C0F6FFE4C0F7FF080033
:100C6800F5CFE5F0E531E832E8321F0BC6EC0CF0C1
:100C7800120081EC0DF00009D8A412000001E86B05
:100C8800E851910FD96EDA6ADF50D8B440D0E76BDB
:100C980034D081EC0DF00009D8A41200E7C0E3F0CD
:100CA800010E0001E46FE32B02D0D890E437E32F64
:100CB800FCD70001E451E56FE851910FD96EDA6A6B
:100CC800DF50E5150009D8B416D0E851080DF350E7
:100CD800E725E66F1F0E0F012F6F000E0001E625B6
:100CE800D96EDA6A020EDA22DF50DD6FE65143EC84
:100CF8000AF00F012F6B0001E72BE851910FD96E15
:100D0800DA6ADF50D8B403D0070EE765C2D7E82BFC
:100D18001F0EE865B5D71200000E5C24D96EDA6A9A
:100D2800010EDA22DF6A9CA415D0000E5C24D96E6D
:100D3800DA6A010EDA220101DF8201D80BD0050040
:100D48000001FA6EED51FD6EEE51FE6EF850FF6E29
:100D5800FA5012009CA215D0000E5C24D96EDA6AF3
:100D6800010EDA220101DF8401D80BD00500000151
:100D7800FA6EEB51FD6EEC51FE6EF850FF6EFA50B4
:100D88001200000E5C24D96EDA6A010EDA22DF50F6
:100D9800D8B40DD001D8120005000001FA6EE9514F
:100DA800FD6EEA51FE6EF850FF6EFA50120037ECF5
:100DB8000CF012008DEC0DF020EC0DF00009D8B409
:100DC80009D026EC0DF00009D8B402D0010E0AD0E3
:100DD800020E08D026EC0DF00009D8B402D0030E9C
:100DE80001D0040E586E1BD016EC0CF014EC0DF06C
:100DF8000009D8B428D0F4EC0BF025D016EC0CF090
:100E080022D014EC0DF00009D8A4F5D71CD01AECA8
:100E18000DF00009D8B417D005EC0CF014D05850D8
:100E2800216E226A2250000AD8A40DD02150010A4E
:100E3800D8B4DAD7030AD8B4E1D7010AD8B4E1D7CD
:100E4800070AD8B4E4D79EEC0DF01200116E0A0E12
:100E5800116412D0EE0EE66E3F0EE66E2E0EE66EB2
:100E6800000EE66EC70EE66E3F0EE66E720EE66E7A
:100E78003F0EE66E8FEC0AF0010E0E6412D0EE0EF5
:100E8800E66E3F0EE66E2F0EE66E000EE66EC70E9D
:100E9800E66E3F0EE66E440EE66E3F0EE66E8FEC93
:100EA8000AF00A0E116402D0000E1200010E0E6440
:100EB80001D0FAD7106A080E126ED89010360EC0FC
:100EC80001F01204026E115024EC03F01012120605
:100ED8001250D8A4F2D70F50D96EDA6A10C0DFFFCB
:100EE800010E1200116E0A0E116412D0DC0EE66EAD
:100EF8003F0EE66E590EE66E000EE66EC70EE66E03
:100F08003F0EE66E720EE66E3F0EE66E8FEC0AF04E
:100F1800010E0F6412D0DC0EE66E3F0EE66E5A0E1E
:100F2800E66E000EE66EC70EE66E3F0EE66E440EE7
:100F3800E66E3F0EE66E8FEC0AF00A0E116402D0E0
:100F4800000E1200010E0F6401D0FAD7126A0FC00A
:100F580001F012C002F010A002D0010E01D0000E64
:100F6800036E115077EC02F0D8901032122A070E57
:100F78001264EDD7010E12000001D451D8B412004A
:100F880099EC0CF00009D8A4120090EC0DF01D6E3D
:100F98000001D405D8A409D0080E0F012F6F1D50E9
:100FA8000001D36FD26BD42B1200020ED419D8A42F
:100FB80007D0100E0F012F6F1D500001D213F3D769
:100FC800030ED419D8A4D46BD551D611D8B41200B5
:100FD800D20E166E1DC017F020EED5F001D80AD03B
:100FE8000500FA6EDE50FD6EDE50FE6EF850FF6EA4
:100FF800FA5012001C6E0001D92B1C50D8A4120004
:1010080087EC0DF01200200E0F012F6F1650D96ECD
:10101800DA6ADECF1AF0DDCF1BF01BAE0AD01AC099
:1010280013F01BC014F017C015F09BEC0BF0000E6A
:1010380012001650D96EDA6A000EDE5C010EDE5818
:10104800D8B0F5D71650D96EDA6ADF50B5EC0CF087
:101058001718D8B408D017C001F01650D96EDA6A3C
:10106800DF506BEC0AF01650D96EDA6ADE2A000EF1
:10107800DD221650D96EDA6A000EDE5C010EDE58EB
:10108800D8A005D01650D96EDA6ADE6ADD6A010E7C
:101098001200180E0F012F6F1950D96EDA6ADECFC1
:1010A8001DF0DDCF1EF01EAE09D01DC013F01EC00E
:1010B80014F01AC015F062EC05F012001950D96E40
:1010C800DA6A000EDE5C010EDE58D8B022D0195064
:1010D800D96EDA6A000EDE5C010EDE58D8A005D0A3
:1010E8001950D96EDA6ADE6ADD6A1950D96EDA6A81
:1010F800DF50B5EC0CF01B6E1A50D96EDA6A1BC0C3
:10110800DFFF1950D96EDA6ADE2A000EDD22010EE1
:101118001200000E1200E652E652FA0EE3CF41F03A
:10112800FB0EE3CF42F0FF0E42C0E3FFFE0E41C0CC
:10113800E3FF16D0F80EE3CFE6FFE3CFE6FFFC0EA1
:10114800E124376EFF0EE220386E37C0E6FF38C064
:10115800E6FFF80EE3CFE6FFE3CFE6FF8AEC00F008
:10116800E150FE0FD96EE250DA6EFF0EDA22DECFC2
:10117800F6FFDDCFF7FF0800F5500009D8A4DAD74D
:10118800000E376E000E386EF80EE126FF0EE222D2
:1011980012000E01C09B200E0001DA6F0D0EDB6FEE
:1011A8004FEC0DF00E01C099BE0E0001DA6F170E5C
:1011B800DB6F4AEC0DF0080E9E6E900E9C6E240EAE
:1011C8009D6E220E9A6E9B6A460E0001DA6F1B0E08
:1011D800DB6F59EC0DF02C0E0001DA6F1B0EDB6F84
:1011E80054EC0DF0320E0001DA6F1B0EDB6F5EEC73
:1011F8000DF00001D06B5F6A5E6A400E5D6E5C6A3E
:101208005B6A5A6A0E01C08B1200A3EC0CF02A0E1E
:10121800DDEC0CF07F0ED6EC0CF0BC0E0001DA6FA2
:101228000D0EDB6F3BEC0DF0000E0001DA6F000EC7
:10123800DB6F40EC0DF0EC0E0001DA6F1A0EDB6F7D
:101248002CEC0DF0D00E0001DA6F1A0EDB6F36ECC5
:101258000DF0DA0E0001DA6F1A0EDB6F45EC0DF0B7
:10126800000E0001DA6F000EDB6F31EC0DF07EEC42
:101278000DF012000001DE6F0F012C51030B00016D
:10128800DD6FDD51DE19D8B412000F012C51FC0BB3
:101298000001DE110F012C6FDDC0DAF0010E000134
:1012A800DA17DE51010BDA19D8B412D0DE51D8B4EE
:1012B80004D0000EDC6F030E03D0000EDC6F000EAE
:1012C800DB6F0F015351FC0B0001DB110F01536F52
:1012D800F9EC0CF00009D8A41200FAD7E652E6524D
:1012E800FB0EE124416EFF0EE220426EFF0E42C06B
:1012F800E3FFFE0E41C0E3FFFE0EE124376EFF0E52
:10130800E220386E37C0E6FF38C0E6FFF90EE3CFBB
:10131800E6FFE3CFE6FF000EE66E000EE66E8FEC0A
:1013280008F0E552E552E552E750E15E000EE25A58
:1013380012006AEC0BF0F28EF28C0F012F6BC9ECE5
:101348000BF046EC0CF0200E0F012F6FB20EE66E7C
:101358003F0EE66E020EE66E72EC09F07F0E00019B
:10136800DC6F0E0EDD6F100EDE6F9A0EDF6F100E43
:10137800E06F2A0EF1EC09F00F012F6B3DEC06F03F
:10138800DAEC05F0FBD7826A836A846A8768DF0E25
:10139800886E89680F011C6B800E146F040E0C6F29
:1013A800286B136B0B6B1B6B0A6B126B1A6B09693F
:1013B80011691969086910691869080E256F0E0EF8
:1013C8000E01B06F140EB36F0D0EF56F090EEF6FAF
:1013D8000E0EF66F130EB26F12000001E16FDDC042
:1013E800D5F0DEC0D6F0DFC0D7F0E0C0D8F009EC09
:1013F80009F00001E151E125926EDC51DC25936E84
:10140800978C640EDA6F170EDB6F45EC0DF0340E17
:101418000001DA6F140EDB6F2CEC0DF0800E00016A
:10142800DA6F0F0EDB6F36EC0DF0120099EC0CF052
:101438000009D8A412000001D751D811D8B412005D
:10144800D20E196E200E1A6E20EED7F001D80AD0EF
:101458000500FA6EDE50FD6EDE50FE6EF850FF6E2F
:10146800FA5012001F6E0001D92B1F50D8B404D0B7
:10147800205063EC0DF0120087EC0DF01200000113
:10148800E26FDDC0DAF00001E25114EC0BF0E2C0CB
:10149800DEF0070E0001DE17010EDF6FDE2B02D033
:1014A800D890DF37DE2FFCD70001DF51FF0AE06F4D
:1014B800E2C0E1F0D890E133D890E133D890E1333D
:1014C800E151910FD96EDA6AE051DF161200056E0C
:1014D800000E0524D96EDA6A020EDA2201C0DFFF97
:1014E80005C002F0070E0216010E036E022A02D092
:1014F800D8900336022EFCD705C004F0D8900432E9
:10150800D8900432D89004320450910FD96EDA6A18
:101518000350DF121200FA0EE3CFE6FFE3CFE6FF37
:10152800F60EE3CFE6FFE3CFE6FFF80EE3CFE6FFE4
:10153800E3CFE6FFF80EE3CFE6FFE3CFE6FFF00EDA
:10154800E66E3E0EE66E0A0EE66E72EC09F0F2ECFE
:101558000CF0F80EE126FF0EE222120002EE00F077
:1015680021EE00F0EE6ADD50D950FCE1DA50FAE1E4
:1015780001EE00F0E00EEE6AE806FDE100EE60F034
:101588007A0EEE6AE806FDE100EE57F0090EEE6A03
:10159800E806FDE1000EF86E00019DEF09F0036E0C
:1015A8000F0E036412D02D0EE66E3F0EE66E1A0E75
:1015B800E66E000EE66ED30EE66E3F0EE66E880E01
:1015C800E66E3F0EE66E8FEC0AF00350020DF35004
:1015D800700FD96EDA6ADECF01F0DDCF02F01200AB
:1015E8000001DB6F0F0E0001DB6512D0130EE66EF3
:1015F8003F0EE66E0F0EE66E000EE66ED30EE66E3A
:101608003F0EE66E880EE66E3F0EE66E8FEC0AF031
:101618000001DB51600FD96EDA6ADAC0DFFF120011
:101628000001DB6F000EF2BE010E0001DC6F310E0F
:101638007B6E7A6ADBC079FFDAC07CFF7F8EF29E10
:10164800550E816EAA0E816E808880B8FED7000183
:10165800DCB102D0F29E01D0F28E7F9E12005D5066
:10166800D8B4FDD70E01C0B904D0FF0EE3CF99FF5F
:1016780010D0C099800E5F24D96EDA6A010EDA2282
:10168800FF0EE3CFDFFF5F2A3F0E5F6401D05F6A82
:101698005D06C089E5521200656A666A676A686A0B
:1016A800636A646A616A0F015A6B586B596B546BB1
:1016B800120E556F566B606A030E536F516B070E0F
:1016C800526F840E5B6F100E576F12009CEC0DF07A
:1016D800CEEC0CF007EC0DF0C7EC09F0ACEC0CF01C
:1016E80072EC0DF050EC0BF083EC0CF08EEC0CF07F
:1016F8000EEC0DF078EC0CF0CDEC08F01200FF0EBB
:10170800E3BE07D0FE0EE3CF37F0FF0EE3CF38F08D
:101718000BD0FE0EE3CF37F0371EFF0EE3CF38F0C5
:10172800381E372AD8B4382AE552E5521200200E5E
:1017380013600BD01450070B0F6E15C010F0135028
:1017480076EC07F01200000E12001350210AD8B4EC
:1017580003D0030AD8A4F7D7010E12000001D96BF1
:1017680099EC0CF00009D8A41200040E0F012F6F99
:1017780090EC0DF00001D16F93EC0DF00009D8A4A6
:101788001200010E0001D46F1200000E0001DD6F7F
:10179800000EDC6F000EDC25D96E020EDD21DA6E3C
:1017A800DC51E4EC0CF0DF6E0001DC4BDD2BDD05D9
:1017B800D8B01200EFD7400E5D600FD0800E5E24C7
:1017C800D96EDA6A010EDA22DF50996E5E2A3F0E70
:1017D8005E6401D05E6A5D2A12000E01C099120093
:1017E8000001C751C811D8B4120001D81200050071
:1017F800FA6EC751FD6EC851FE6EF850FF6EFA5072
:1018080012000001C951CA11D8B4120001D812003F
:101818000500FA6EC951FD6ECA51FE6EF850FF6E92
:10182800FA5012000001C551C611D8B4120001D8EF
:1018380012000500FA6EC551FD6EC651FE6EF850D5
:10184800FF6EFA5012000F015F510001DD6FDC6B73
:101858000F015E510001DC25DA6F0F01000E000157
:10186800DD21DB6F1200400E5C24D96EDA6A010EAE
:10187800DA2298CFDFFF5C2A3F0E5C6401D05C6AF5
:101888005A2A12000001DC6B020EDA6FDC51F4EC0C
:101898000AF00001DC2B0F0EDC65F6D79069120008
:1018A8000001DA6F310E7B6E7A6ADAC079FF8080C8
:1018B800000000007C501200BEEC0CF0FE0EE3CFDE
:1018C800E6FFE3CFE6FFA2EC0DF0E552E552120089
:1018D800066E0650080DF3500424D3EC0AF001C03C
:1018E80004F002C005F01200010EBE6EBD6ABF6AA8
:1018F800BB68BA6A0E01C993800EBC6E1200800ED6
:10190800A16E7F0EA06EC00E9F6EAD503F0B4009BA
:10191800AD6E1200800EA46E7F0EA36EC00EA26E76
:10192800AD50CF0B1009AD6E120094A806D000017F
:10193800D46B0F012F6B010E1200000E120095BA26
:101948001200946A060E9512810E966E958A120000
:10195800610E0E01D36FD56BD76B060ED96FD86B9E
:101968001200016E000E0124D96EDA6A020EDA2224
:10197800DF50120001D057065750800A7F0FD8A0B9
:101988001200F9D70001DA6FDAC05AFF0F015B8F36
:101998005B8112000E01DC6BDD6BDE6BDF6BE06BD5
:1019A800E16B12000001DA6F0001DA51DA25936E5B
:1019B80012000001DA6F0001DA51DA25926E120086
:1019C8000001DB6F0001DB5154EC0CF01200FF0E3C
:1019D800E350E66E33EC0BF0E5521200FF0EE66EB4
:1019E800FF0EE66E60EC0CF012000F012CAD02D079
:1019F800010E1200000E12000F015BB102D0010EA1
:101A08001200000E1200946A060E9512810E966E50
:101A1800959A1200B80E0F012E6F100E2F6F12003C
:101A280094B002D0010E1200000E120094A002D051
:101A3800010E1200000E120094BA02D0010E12001C
:101A4800000E120094A402D0010E1200000E120023
:101A5800DAC0C7F0DBC0C8F01200DAC0C1F0DBC0E2
:101A6800C2F01200DAC0C9F0DBC0CAF01200DAC056
:101A7800CBF0DBC0CCF01200DAC0C3F0DBC0C4F09E
:101A88001200DAC0C5F0DBC0C6F01200DAC0F1F00F
:101A9800DBC0F2F01200DAC0EFF0DBC0F0F01200A9
:101AA800DAC0EBF0DBC0ECF01200DAC0EDF0DBC01E
:101AB800EEF01200DAC0E9F0DBC0EAF01200026EC4
:101AC80002507AEC0DF01200A0EC0DF00001CF6F7F
:101AD8001200A0EC0DF00001CE6F12008A0E0F016B
:101AE8002C6F120059507AEC0DF01200016E01C0F3
:101AF80091FF12000E01C08112000001D4511200A2
:101B08000001D95112008AEC0DF01200968A9688CD
:101B180012000E01C8911200A0EC0DF0120026EC84
:101B28000DF012009C989C88120037EC0CF0120003
:101B3800F29A12009588120091501200FFD71200F5
:103EAE0000820F618C0F61870F61080F68090F6820
:103EBE000A0F680B0F680C0F68050F68060F68076E
:103ECE000F683018402050287038603002801288F9
:103EDE0022904160315821501148014072B862B0B1
:103EEE0052A8417373657274696F6E206661696C56
:103EFE0065643A202573202825733A2025733A20CD
:103F0E002564290A00616E616C6F675F73656C656D
:103F1E0063745F706F735F7265665F69647800616A
:103F2E006E616C6F675F6765745F6164635F766116
:103F3E006C5F69647800706F72744E6F203C204520
:103F4E0058505F504F5254535F434E5400706F722F
:103F5E00744E6F203C20654558505F504F52545F51
:103F6E00434E54007265674E6F203C206552656764
:103F7E00697374657273434E5400696478203C20F3
:103F8E004558505F50494E535F434F554E54007045
:103F9E00696E4E6F203C20654558505F50494E5F0C
:103FAE00434E540046616E63792049324320457872
:103FBE0074656E6465720D0A007265676973746567
:103FCE0072732E6300616E616C6F672E63005772A1
:103FDE006974655265670057726974654269740049
:103FEE00526561645265670052656164426974008E
:013FFE0000C2
:020000040030CA
:0C000000ECFFFFFF9FFFFFFFFFFFFFFF73
:00000001FF
