:0400000086EF00F097
:10000800FACF23F0FBCF24F0E9CF25F0EACF26F092
:10001800E1CF27F0E2CF28F0D9CF29F0DACF2AF0C4
:10002800F3CF2BF0F4CF2CF0F6CF2DF0F7CF2EF046
:10003800F8CF2FF0F5CF30F037C031F038C032F0BC
:100048003FC033F040C034F041C035F042C036F014
:1000580013EE80F0F2AC2DD00E01C0B3C8A309D0C6
:1000680001D827D005000001FA6ECB51FD6ECC51A6
:100078001BD0C0A102D0C8B1F3D7C0B9C8A909D054
:1000880001D817D005000001FA6EF151FD6EF2514A
:100098000BD0C0BBC8AB0DD001D80BD005000001F8
:1000A800FA6EEF51FD6EF051FE6EF850FF6EFA5089
:1000B800120036C042F035C041F034C040F033C0C1
:1000C8003FF032C038F031C037F030C0F5FF2FC0F4
:1000D800F8FF2EC0F7FF2DC0F6FF2CC0F4FF2BC091
:1000E800F3FF2AC0DAFF29C0D9FF28C0E2FF27C0E2
:1000F800E1FF26C0EAFF25C0E9FF24C0FBFF23C0BB
:10010800FAFF110013EE00F0CDEF0BF00A0EE12616
:10011800000EE222F20EE3CFD9FFF30EE3CFDAFFAF
:10012800DECFF6FFDDCFF7FF0800F550250AD8A48B
:10013800BED1F20EE3CFD9FFF30EE3CFDAFFDE2A0A
:10014800000EDD22000E0001B86F000EB76FB7C0B9
:10015800CDF0B969BA69F20EE3CFD9FFF30EE3CF58
:10016800DAFFDECF41F0DDCF42F0FD0E42C0E3FF03
:10017800FC0E41C0E3FFE150FC0FD96EE250DA6E8D
:10018800FF0EDA22DECFF6FFDDCFF7FF0800F550CD
:10019800640AD8B410D0E150FC0FD96EE250DA6E80
:1001A800FF0EDA22DECFF6FFDDCFF7FF0800F550AD
:1001B800690AD8A4AED0F00EE3CFD9FFF10EE3CF91
:1001C800DAFF020EDE5E000EDD5ADECF41F0DDCF33
:1001D80042F041C0D9FF42C0DAFFDECF41F0DDCFA7
:1001E80042F0F80E41C0E3FFF90E42C0E3FFFC0EF7
:1001F800E350010F416EFD0EE3CF42F0000E4222A4
:10020800F20EE3CFD9FFF30EE3CFDAFF41C0DEFFF2
:1002180042C0DDFFFE0EE36AE38AF90EE3AE03D0C7
:10022800426A422A01D0426AFF0E42C0E3FFFE0E34
:10023800E306FE0EE350416E426AC00E4124D96EB9
:10024800010E4220DA6E0A0EE66E000EE66EF60E1B
:10025800E3CFE6FFE3CFE6FF2CEC05F037C0E6FF7F
:1002680038C0E6FFD8EC0CF03750300FDF6E0A0EBE
:10027800E66E000EE66EF60EE3CFE6FFE3CFE6FF8E
:1002880093EC04F0F80E37C0E3FFF90E38C0E3FF33
:10029800F80EE3CF37F0F90EE3503710D8B404D096
:1002A800FE0EE350D8A4C3D7FE0EE350D8B429D02D
:1002B800FF0EE350D8B425D0FE0EE306FE0EE35041
:1002C800416E426AC00E4124D96E010E4220DA6E98
:1002D8002D0EDF6E16D0F40EE3CFE6FFE3CFE6FF78
:1002E800FC0EE32AE304416E426AC00E4124D96E33
:1002F800010E4220DA6EDF50E66E000EE66EACECC0
:1003080005F0FE0EE3CF37F0200E3718D8B4E6D04C
:10031800E2D7FF0EE36AF20EE3CFD9FFF30EE3CF85
:10032800DAFFDECFF6FFDDCFF7FF0800F550730ADE
:10033800D8A40DD0F20EE3CFD9FFF30EE3CFDAFF46
:10034800DE2A000EDD22FF0EE36AE32A46D0F20E13
:10035800E3CFD9FFF30EE3CFDAFFDECFF6FFDDCF31
:10036800F7FF0800F5506C0AD8A437D0F20EE3CF97
:10037800D9FFF30EE3CFDAFFDECF41F0DDCF42F055
:10038800010E4126000E422241C0F6FF42C0F7FF8F
:100398000800F5506C0AD8A420D0F20EE3CFD9FF9C
:1003A800F30EE3CFDAFFDECF41F0DDCF42F0020EED
:1003B8004126000E422241C0F6FF42C0F7FF080066
:1003C800F550730AD8A409D0F20EE3CFD9FFF30E83
:1003D800E3CFDAFF030EDE26B4D7FF0EE350D8B41E
:1003E8005CD0F00EE3CFD9FFF10EE3CFDAFF020EB7
:1003F800DE5E000EDD5ADECF41F0DDCF42F041C0B7
:10040800D9FF42C0DAFFDECF41F0DDCF42F0F70E70
:1004180042C0E3FFF60E41C0E3FF2AD0F40EE3CF5B
:10042800E6FFE3CFE6FFF40EE3CFF6FFF50EE3CFEA
:10043800F7FF040EF76403D00800F55005D0F6CF97
:10044800E9FFF7CFEAFFEF50E66E000EE66EACEC80
:1004580005F0F60EE350010F376EF60E37C0E3FFD6
:10046800376AF70EE3503720376EF70E37C0E3FFD1
:10047800F60EE3CFF6FFF70EE3CFF7FF040EF764AF
:1004880003D00800F55005D0F6CFE9FFF7CFEAFF13
:10049800EF500009D8B422D0C1D7F20EE3CFD9FF6C
:1004A800F30EE3CFDAFFDE2A000EDD2217D0F40EBA
:1004B800E3CFE6FFE3CFE6FFF00EE3CFD9FFF10E7F
:1004C800E3CFDAFFDECFF6FFDDCFF7FF0800F55008
:1004D800E66E000EE66EACEC05F0DFD7F00EE12616
:1004E800FF0EE22212000F6E080E016006D0030E06
:1004F8000F6003D0040E026402D0000E12000150F7
:10050800020DF3CF03F0F4CF04F00F50100DD00E0E
:10051800F324056E3E0EF420066E03500524126E79
:1005280004500620136EE20E106E0E0E116E12C0ED
:10053800F6FF13C0F7FF0800F5CF03F003500F0BC9
:10054800046E0450080DF3CF05F0F4CF06F012C086
:10055800F6FF13C0F7FF0800F5CF07F007380F0BB9
:10056800086E08500526000E062205501026065073
:10057800112212C0F6FF13C0F7FF0800F5CF03F0F1
:1005880003500F0B046E056A870E0424096E0F0EC4
:1005980005200A6E12C0F6FF13C0F7FF0800F5CF5A
:1005A80003F003380F0B046E010E056E042A02D007
:1005B800D8900536042EFCD70550FF0A066E09C0F0
:1005C800D9FF0AC0DAFF0650DF160250D8A407D0B8
:1005D80010C0D9FF11C0DAFFDF6A010E1200030E46
:1005E800026029D012C0F6FF13C0F7FF0800F5CF4C
:1005F80003F003500F0B0009D8B47FD70250036EE5
:10060800046AD89003360436D89003360436A70E09
:1006180003240B6E0F0E04200C6E0BC0D9FF0CC008
:10062800DAFF0C0EDF6E0250040F10C0D9FF11C0A4
:10063800DAFFDF6ED2D712C0F6FF13C0F7FF08004B
:10064800F5CF03F003500F0BE806D8B456D7025085
:10065800036E046AD89003360436D89003360436FD
:10066800980E03240D6E0F0E04200E6E0DC0D9FFD8
:100678000EC0DAFF800ED6D70E6E0A0E0E6412D0A8
:10068800E50EE66E3F0EE66E440EE66E000EE66E72
:10069800C70EE66E3F0EE66E720EE66E3F0EE66E13
:1006A800AAEC0BF0010E016412D0E50EE66E3F0EC7
:1006B800E66E450EE66E000EE66EC70EE66E3F0E5F
:1006C800E66E5B0EE66E3F0EE66EAAEC0BF0070ECA
:1006D800026412D0E50EE66E3F0EE66E460EE66E3A
:1006E800000EE66EC70EE66E3F0EE66E9D0EE66ED7
:1006F8003F0EE66EAAEC0BF00250020DF3CF04F0A9
:10070800F4CF05F00150100DD00EF324066E3E0E06
:10071800F420076E04500624096E055007200A6E5F
:100728000E50030DAF0EF324F66E3E0EF420F76E56
:100738000900F5CF0BF00A00F5CF0CF00E50030DB1
:10074800020EF326000EF422AF0EF324F66E3E0ED0
:10075800F420F76E0800F5CF04F01F0E041609C048
:10076800F6FF0AC0F7FF0800F5CF05F005500F0B9C
:10077800066E06500402F3500B26F4500C220BC0F0
:10078800D9FF0CC0DAFFDF50086E09C0F6FF0AC0B7
:10079800F7FF0800F5CF04F004380F0B056E010EC3
:1007A800066E052A02D0D8900636052EFCD70650CC
:1007B8000D6E0350D8B403D00D50081203D00D505D
:1007C800FF0A08160BC0D9FF0CC0DAFF08C0DFFF0C
:1007D80012000D6E0A0E0D6412D0F60EE66E3F0E74
:1007E800E66E1E0EE66E000EE66EC70EE66E3F0E55
:1007F800E66E720EE66E3F0EE66EAAEC0BF0010E88
:10080800016412D0F60EE66E3F0EE66E1F0EE66E1F
:10081800000EE66EC70EE66E3F0EE66E5B0EE66EE7
:100828003F0EE66EAAEC0BF0070E026412D0F60E2D
:10083800E66E3F0EE66E200EE66E000EE66EC70E02
:10084800E66E3F0EE66E9D0EE66E3F0EE66EAAEC75
:100858000BF00250020DF3CF03F0F4CF04F0015077
:10086800100DD00EF324056E3E0EF420066E0350D4
:1008780005240B6E045006200C6E0D50030DAF0EB0
:10088800F324F66E3E0EF420F76E0900F5CF07F05C
:100898000A00F5CF08F00D50030D020EF326000EE6
:1008A800F422AF0EF324F66E3E0EF420F76E080025
:1008B800F5CF03F01F0E03160BC0F6FF0CC0F7FFB1
:1008C8000800F5CF04F004500F0B056E0550030225
:1008D800F3500726F450082207C0D9FF08C0DAFFF2
:1008E800DF50096E0BC0F6FF0CC0F7FF0800F5CF0C
:1008F80003F003380F0B046E010E056E042A02D0B4
:10090800D8900536042EFCD705500A6E09500A14F3
:100918000009D8B402D0010E1200000E1200E652EF
:10092800E652E652E652FE0EE36AF90EE3AE09D04D
:10093800F80EE36CF90EE31ED8B0E32AFE0EE36A64
:10094800E32AFB0EE3AE08D0FA0EE36CFB0EE31EBF
:10095800D8B0E32AFE0EE370FC0EE36AFD0EE36AEC
:10096800F80EE3CF37F0F90EE3503710D8B45BD068
:10097800FF0EE36A10D0F80EE350D890E834376ED3
:10098800F80E37C0E3FFF90EE350E834376EF90E7E
:1009980037C0E3FFFF0EE32AF90EE3AEECD7FC0EF7
:1009A800E350D890E834376EFC0E37C0E3FFFD0EF5
:1009B800E350E834376EFD0E37C0E3FFF80EE3CF9F
:1009C80041F0F90EE3CF42F0FA0EE3CF3FF0FB0E11
:1009D800E3CF40F041503F5C42504058D8A014D07B
:1009E800FA0EE350376EF80EE350375EFA0E37C052
:1009F800E3FFFB0EE350376EF90EE350375AFB0E58
:100A080037C0E3FFFC0EE380D890F90EE332F80E0E
:100A1800E332FF0EE350376E010E375EFF0E37C02C
:100A2800E3FFD8A4BCD7FE0EE350D8B406D0FC0E22
:100A3800E36CFD0EE31ED8B0E32AFC0EE3CF37F0DB
:100A4800FD0EE3CF38F0F80EE126FF0EE222120089
:100A5800E652E652FE0EE36AFD0EE3AE09D0FC0E46
:100A6800E36CFD0EE31ED8B0E32AFE0EE36AE32A28
:100A7800FB0EE3AE06D0FA0EE36CFB0EE31ED8B015
:100A8800E32AFA0EE3CF37F0FB0EE3503710D8B461
:100A98004AD0FF0EE36A10D0FA0EE350D890E8343B
:100AA800376EFA0E37C0E3FFFB0EE350E834376EBB
:100AB800FB0E37C0E3FFFF0EE32AFB0EE3AEECD7D5
:100AC800FA0EE3CF41F0FB0EE3CF42F0FC0EE3CF8A
:100AD8003FF0FD0EE3CF40F041503F5C425040589C
:100AE800D8A012D0FC0EE350376EFA0EE350375EF2
:100AF800FC0E37C0E3FFFD0EE350376EFB0EE350EC
:100B0800375AFD0E37C0E3FFD890FB0EE332FA0EDA
:100B1800E332FF0EE350376E010E375EFF0E37C02B
:100B2800E3FFD8A4CDD7FE0EE350D8B406D0FC0E10
:100B3800E36CFD0EE31ED8B0E32AFC0EE3CF37F0DA
:100B4800FD0EE3CF38F0FA0EE126FF0EE222120086
:100B5800FC0EE3CF37F0FD0EE3503710D8B408D0C1
:100B6800FC0EE3CF37F0FD0EE3503710D8A406D0C3
:100B7800FE0EE350E66E72EC0EF064D0FC0EE3CF8E
:100B880041F0FD0EE3CF42F0090E4124D96E000E6C
:100B98004220DA6EDE50DE10D8B422D0FC0EE3CF4D
:100BA80041F0FD0EE3CF42F0090E4124D96E000E4C
:100BB8004220DA6EFC0EE3CF41F0FD0EE3CF42F0A7
:100BC800020E4124E96E000E4220EA6EDE50EE5C11
:100BD800EE50800A376EDE50800A3758D8B032D0CF
:100BE800FC0EE3CF41F0FD0EE3CF42F0020E4124AC
:100BF800D96E000E4220DA6EDECF41F0DDCF42F032
:100C0800FC0EE3CFD9FFFD0EE3CFDAFFDECF3FF0D6
:100C1800DDCF40F041503F24D96E42504020DA6E7B
:100C2800FE0EE3CFDFFFFC0EE3CF41F0FD0EE3CF76
:100C380042F0020E4124D96E000E4220DA6EDE2AFE
:100C4800000EDD22E552E552E552E5521200200E73
:100C5800136063D01438070B0E6E15C00FF01350D5
:100C6800E4EC07F012000FEC0FF00009D8A404D050
:100C780013C0BDF014C0BEF00FEC0FF0166E16B026
:100C88000CD00001BE510F0B046EBE39070BD6EC19
:100C98000DF004C0BFF005C0C0F00FEC0FF0166EE9
:100CA800010E16161650BF0FD96EDA6A1550E96E86
:100CB800EA6ADFCFEFFF0FEC0FF0166E16A034D004
:100CC800010E166E0001BE510F0B176E1650172637
:100CD800BE511718F00B1718BE6FBE510F0B186EC8
:100CE800070E186421D0F00EBE17010E166EBE391D
:100CF800070B176E16501726173ABE5117188F0B89
:100D08001718BE6FBE39070B186E010E18640CD089
:100D18008F0EBE1709D0000E12001350200AD8B447
:100D2800A2D7010AD8A4F7D7010E1200110E0001AC
:100D3800906105D087EC0EF00009D8B41200100EAF
:100D48000001906112D087EC0EF00009D8B40DD0E4
:100D580084EC0DF000019051020DF350700FD96E24
:100D6800DA6ADAC0DEFFDBC0DDFF0001902B0F0E70
:100D7800906501D0906B9051600FD96EDA6ADF50A0
:100D88002EEC0AF0080EE66E000EE66E0001905199
:100D9800E66E000EE66E93EC04F037500001E66F45
:100DA8009051070BE76FE751020DF3CFDFF0F4CF57
:100DB800E0F0E651100DD00EF324E16F3E0EF42062
:100DC800E26FDF51E125E36FE051E221E46F010EAC
:100DD800E327000EE423E3C0F6FFE4C0F7FF0800B2
:100DE800F5CFE5F0E531E832E8321F0B45EC0EF0BF
:100DF8001200000E5C24D96EDA6A010EDA22DF6A6C
:100E08009CA415D0000E5C24D96EDA6A010EDA2291
:100E18000101DF8201D80BD005000001FA6EED5107
:100E2800FD6EEE51FE6EF850FF6EFA5012009CA255
:100E380015D0000E5C24D96EDA6A010EDA2201019F
:100E4800DF8401D80BD005000001FA6EEB51FD6E6E
:100E5800EC51FE6EF850FF6EFA501200000E5C2442
:100E6800D96EDA6A010EDA22DF50D8B40DD001D873
:100E7800120005000001FA6EE951FD6EEA51FE6E9E
:100E8800F850FF6EFA50120094EC0DF012000CECC2
:100E98000FF00009D8A412000001E86BE851910F87
:100EA800D96EDA6ADF50D8B43AD0E76B2ED00CECA2
:100EB8000FF00009D8A41200E7C0E3F0010E00010A
:100EC800E46FE32B02D0D890E437E32FFCD700017E
:100ED800E451E56FE851910FD96EDA6ADF50E515F4
:100EE8000009D8B410D0E851080DF350E725E66F93
:100EF800000EE625D96EDA6A020EDA22DF50DD6FBF
:100F0800E6513BEC0BF00001E72BE851910FD96E4D
:100F1800DA6ADF50D8B403D0070EE765C8D7E82BE4
:100F28001F0EE865BBD7120018EC0FF0A7EC0EF007
:100F38000009D8B409D0ADEC0EF00009D8B402D03D
:100F4800010E0AD0020E08D0ADEC0EF00009D8B49C
:100F580002D0030E01D0040E586E1BD073EC0DF0B6
:100F68009BEC0EF00009D8B428D02FEC0DF025D05A
:100F780073EC0DF022D09BEC0EF00009D8A4F5D745
:100F88001CD0A1EC0EF00009D8B417D040EC0DF03D
:100F980014D05850216E226A2250000AD8A40DD0CD
:100FA8002150010AD8B4DAD7030AD8B4E1D7010A24
:100FB800D8B4E1D7070AD8B4E4D729EC0FF0120067
:100FC800116E0A0E116412D0EE0EE66E3F0EE66E3A
:100FD8002E0EE66E000EE66EC70EE66E3F0EE66E4D
:100FE800720EE66E3F0EE66EAAEC0BF0010E0E6472
:100FF80012D0EE0EE66E3F0EE66E2F0EE66E000E77
:10100800E66EC70EE66E3F0EE66E440EE66E3F0EC7
:10101800E66EAAEC0BF00A0E116402D0000E120064
:10102800010E0E6401D0FAD7106A080E126ED8901D
:1010380010360EC001F01204026E1150EDEC03F0F0
:10104800101212061250D8A4F2D70F50D96EDA6ACD
:1010580010C0DFFF010E1200116E0A0E116412D0CB
:10106800DC0EE66E3F0EE66E590EE66E000EE66E7C
:10107800C70EE66E3F0EE66E720EE66E3F0EE66E29
:10108800AAEC0BF0010E0F6412D0DC0EE66E3F0ED8
:10109800E66E5A0EE66E000EE66EC70EE66E3F0E60
:1010A800E66E440EE66E3F0EE66EAAEC0BF00A0EF4
:1010B800116402D0000E1200010E0F6401D0FAD79D
:1010C800126A0FC001F012C002F010A002D0010E87
:1010D80001D0000E036E115040EC03F0D89010328E
:1010E800122A070E1264EDD7010E12001950D96E9C
:1010F800DA6ADECF1DF0DDCF1EF01EAE09D01DC0AE
:1011080014F01EC015F01AC016F0BEEC08F012005C
:101118001950D96EDA6A000EDE5C010EDE58D8B0BE
:1011280027D01950D96EDA6ADF5034EC0EF01A184D
:10113800D8B408D01AC001F01950D96EDA6ADF5055
:1011480063EC0BF01950D96EDA6ADE2A000EDD2244
:101158001950D96EDA6A000EDE5C010EDE58D8A08E
:1011680005D01950D96EDA6ADE6ADD6A010E1200FE
:10117800000E1200200E14602CD01538070B0F6ECD
:1011880016C010F0145030EC08F0120016501F0B67
:1011980005EC0FF030D015500F0B016E16C002F0A1
:1011A8001538070B77EC02F012001650176E186A04
:1011B800D89017361836D8901736183617C005F055
:1011C80018C006F015500F0B62EC0AF01200000E62
:1011D80012001450176E186A1850000AD8A4F7D7CE
:1011E8001750200AD8B4D2D7010AD8B4D4D7030AE2
:1011F800D8B4DBD7ECD7010E12001950D96EDA6AD1
:10120800DECF1DF0DDCF1EF01EAE09D01DC013F0DD
:101218001EC014F01AC015F02BEC06F0120019507D
:10122800D96EDA6A000EDE5C010EDE58D8B022D024
:101238001950D96EDA6A000EDE5C010EDE58D8A0AD
:1012480005D01950D96EDA6ADE6ADD6A1950D96E8E
:10125800DA6ADF5034EC0EF01B6E1A50D96EDA6A77
:101268001BC0DFFF1950D96EDA6ADE2A000EDD22B4
:10127800010E1200000E12000001D451D8B4120061
:1012880055EC0EF00009D8A412001BEC0FF0206EEC
:101298000001D405D8A405D02050D36FD26BD42B2D
:1012A8001200020ED419D8A403D02050D213F7D7B5
:1012B800030ED419D8A4D46BD551D611D8B41200C2
:1012C800D20E196E20C01AF020EED5F001D80AD03F
:1012D8000500FA6EDE50FD6EDE50FE6EF850FF6EB1
:1012E800FA5012001F6E0001D92B1F50D8A412000B
:1012F80012EC0FF01200E652E652FA0EE3CF41F07C
:10130800FB0EE3CF42F0FF0E42C0E3FFFE0E41C0EA
:10131800E3FF16D0F80EE3CFE6FFE3CFE6FFFC0EBF
:10132800E124376EFF0EE220386E37C0E6FF38C082
:10133800E6FFF80EE3CFE6FFE3CFE6FF8AEC00F026
:10134800E150FE0FD96EE250DA6EFF0EDA22DECFE0
:10135800F6FFDDCFF7FF0800F5500009D8A4DAD76B
:10136800000E376E000E386EF80EE126FF0EE222F0
:1013780012000E01C09BFA0E0001DA6F0D0EDB6F32
:10138800D6EC0EF00E01C0990C0E0001DA6F1A0EA1
:10139800DB6FD1EC0EF0080E9E6E900E9C6E240E44
:1013A8009D6E220E9A6E9B6A5C0E0001DA6F1E0E0D
:1013B800DB6FE0EC0EF0420E0001DA6F1E0EDB6F01
:1013C800DBEC0EF0480E0001DA6F1E0EDB6FE5EC69
:1013D8000EF00001D06B5F6A5E6A400E5D6E5C6A5B
:1013E8005B6A5A6A0E01C08B120022EC0EF02A0EBC
:1013F80064EC0EF07F0E5DEC0EF0300E0001DA6F3B
:101408000F0EDB6FC2EC0EF0000E0001DA6F000E5B
:10141800DB6FC7EC0EF0FA0E0001DA6F1D0EDB6F02
:10142800B3EC0EF0DE0E0001DA6F1D0EDB6FBDECC3
:101438000EF0E80E0001DA6F1D0EDB6FCCEC0EF03B
:10144800000E0001DA6F000EDB6FB8EC0EF009EC4D
:101458000FF012000001DE6F0F012C51030B000189
:10146800DD6FDD51DE19D8B412000F012C51FC0BD1
:101478000001DE110F012C6FDDC0DAF0010E000152
:10148800DA17DE51010BDA19D8B412D0DE51D8B40C
:1014980004D0000EDC6F030E03D0000EDC6F000ECC
:1014A800DB6F0F015351FC0B0001DB110F01536F70
:1014B80080EC0EF00009D8A41200FAD7076E1ED0EF
:1014C80005C001F006C002F062EC0DF025D005C0A1
:1014D80001F006C002F051EC0DF01ED005C001F07D
:1014E80006C002F0BFEC0CF017D005C001F006C032
:1014F80002F0A6EC0CF010D0000E12000750010A02
:10150800D8B4DED7030AD8B4E2D7010AD8B4E6D7EC
:10151800070AD8B4EAD7F0D7010E1200826A836AA4
:10152800846A8768DF0E886E89680F011C6B800EDD
:10153800146F040E0C6F286B136B0B6B1B6B0A6B11
:10154800126B1A6B096911691969086910691869B8
:10155800080E256F0E0E0E01B06F140EB36F0D0E30
:10156800F56F080EAC6F090EEF6F0E0EF66F130EC7
:10157800B26F1200E652E652FB0EE124416EFF0EF6
:10158800E220426EFF0E42C0E3FFFE0E41C0E3FFC1
:10159800FE0EE124376EFF0EE220386E37C0E6FFFC
:1015A80038C0E6FFF90EE3CFE6FFE3CFE6FF000E13
:1015B800E66E000EE66E7FEC09F0E552E552E55264
:1015C800E750E15E000EE25A12000001E16FDDC053
:1015D800D5F0DEC0D6F0DFC0D7F0E0C0D8F0F9EC27
:1015E80009F00001E151E125926EDC51DC25936E92
:1015F800978C360EDA6F1A0EDB6FCCEC0EF0240ED9
:101608000001DA6F160EDB6FB3EC0EF0800E0001EE
:10161800DA6F120EDB6FBDEC0EF0120055EC0EF017
:101628000009D8A412000001D751D811D8B412006B
:10163800D20E196E200E1A6E20EED7F001D80AD0FD
:101648000500FA6EDE50FD6EDE50FE6EF850FF6E3D
:10165800FA5012001F6E0001D92B1F50D8B404D0C5
:101668002050EAEC0EF0120012EC0FF0120000010C
:10167800E26FDDC0DAF00001E25150EC0CF0E2C09C
:10168800DEF0070E0001DE17010EDF6FDE2B02D041
:10169800D890DF37DE2FFCD70001DF51FF0AE06F5B
:1016A800E2C0E1F0D890E133D890E133D890E1334B
:1016B800E151910FD96EDA6AE051DF161200056E1A
:1016C800000E0524D96EDA6A020EDA2201C0DFFFA5
:1016D80005C002F0070E0216010E036E022A02D0A0
:1016E800D8900336022EFCD705C004F0D8900432F7
:1016F800D8900432D89004320450910FD96EDA6A27
:101708000350DF121200EEEC0BF0F28EF28CF0ECCC
:101718000CF0A3EC0DF0B20EE66E3F0EE66E020E74
:10172800E66EBEEC0AF07F0E0001DC6FF40EDD6F92
:10173800100EDE6F020EDF6F120EE06F2A0EE9EC5C
:101748000AF04BEC07F09AEC06F0FBD7FA0EE3CF61
:10175800E6FFE3CFE6FFF60EE3CFE6FFE3CFE6FFD3
:10176800F80EE3CFE6FFE3CFE6FFF80EE3CFE6FFA0
:10177800E3CFE6FFF00EE66E3E0EE66E0A0EE66E6C
:10178800BEEC0AF079EC0EF0F80EE126FF0EE2222C
:10179800120002EE00F021EE00F0EE6ADD50D950A2
:1017A800FCE1DA50FAE101EE00F0E00EEE6AE8063C
:1017B800FDE100EE60F07A0EEE6AE806FDE100EE6B
:1017C80057F0090EEE6AE806FDE1000EF86E00011A
:1017D80087EF0BF027EC0FF04DEC0EF08EEC0EF0CF
:1017E80092EC0AF02BEC0EF0F9EC0EF00EEC0EF089
:1017F8008CEC0CF0E2EC0DF0F8EC0DF0EDEC0DF0EB
:1018080018EC0EF095EC0EF003EC0EF0B1EC0DF0C8
:10181800BDEC09F01200036E0F0E036412D02D0EFA
:10182800E66E3F0EE66E1A0EE66E000EE66ED30EFC
:10183800E66E3F0EE66E880EE66E3F0EE66EAAEC8A
:101848000BF00350020DF350700FD96EDA6ADECF39
:1018580001F0DDCF02F012000001DB6F0F0E000176
:10186800DB6512D0130EE66E3F0EE66E0F0EE66EC7
:10187800000EE66ED30EE66E3F0EE66E880EE66E3E
:101888003F0EE66EAAEC0BF00001DB51600FD96E3B
:10189800DA6ADAC0DFFF12000001DB6F000EF2BE69
:1018A800010E0001DC6F310E7B6E7A6ADBC079FFB6
:1018B800DAC07CFF7F8EF29E550E816EAA0E816E75
:1018C800808880B8FED70001DCB102D0F29E01D03A
:1018D800F28E7F9E12005D50D8B4FDD70E01C0B9BC
:1018E80004D0FF0EE3CF99FF10D0C099800E5F247B
:1018F800D96EDA6A010EDA22FF0EE3CFDFFF5F2A24
:101908003F0E5F6401D05F6A5D06C089E552120030
:10191800656A666A676A686A636A646A616A0F0107
:101928005A6B586B596B546B120E556F566B606A35
:10193800030E536F516B070E526F840E5B6F100EC0
:10194800576F120001C003F002C004F0D8900432AF
:101958000332D890043203320350A06E01C003F062
:10196800030E0316060E046ED8900336042EFCD719
:1019780003509F6E120001C003F002C004F0D8901B
:1019880004320332D890043203320350A36E01C0EC
:1019980003F0030E0316060E046ED8900336042EC9
:1019A800FCD70350A26E1200FF0EE3BE07D0FE0E56
:1019B800E3CF37F0FF0EE3CF38F00BD0FE0EE3CFC6
:1019C80037F0371EFF0EE3CF38F0381E372AD8B469
:1019D800382AE552E5521200000E0001DD6F000EB4
:1019E800DC6F000EDC25D96E020EDD21DA6EDC51CB
:1019F8006BEC0EF0DF6E0001DC4BDD2BDD05D8B0A3
:101A08001200EFD7400E5D600FD0800E5E24D96EB5
:101A1800DA6A010EDA22DF50996E5E2A3F0E5E64A2
:101A280001D05E6A5D2A12000E01C0991200000101
:101A3800D96B55EC0EF00009D8A412001BEC0FF07E
:101A48000001D16F1EEC0FF00009D8A41200010E9E
:101A58000001D46F12000001C751C811D8B4120098
:101A680001D812000500FA6EC751FD6EC851FE6E0E
:101A7800F850FF6EFA5012000001C951CA11D8B4CB
:101A8800120001D812000500FA6EC951FD6ECA5144
:101A9800FE6EF850FF6EFA501200FF0E0116030E8C
:101AA8000216A7A806D0060ED89001360236E82EF0
:101AB800FBD70250A66E01C0A5FF1200FF0E01164B
:101AC800030E0216ABA806D0060ED89001360236D1
:101AD800E82EFBD70250AA6E01C0A9FF1200000130
:101AE800C551C611D8B4120001D812000500FA6E0B
:101AF800C551FD6EC651FE6EF850FF6EFA501200C9
:101B08000F015F510001DD6FDC6B0F015E510001B9
:101B1800DC25DA6F0F01000E0001DD21DB6F1200FA
:101B2800400E5C24D96EDA6A010EDA2298CFDFFF04
:101B38005C2A3F0E5C6401D05C6A5A2A12000001DC
:101B4800DC6B020EDA6FDC5130EC0CF00001DC2BA0
:101B58000F0EDC65F6D7906912000F01406B3D6BE4
:101B68003E6B140E416F426B436B3B6B3C6B800EBC
:101B78003F6F12000001DA6F310E7B6E7A6ADAC0AD
:101B880079FF8080000000007C5012003DEC0EF0D0
:101B9800FE0EE3CFE6FFE3CFE6FF2DEC0FF0E552B4
:101BA800E5521200066E0650080DF35004240FEC9F
:101BB8000CF001C004F002C005F01200010EB86E6E
:101BC800B76AB96AB568B46A0E01C997800EB66E6D
:101BD8001200010EBE6EBD6ABF6ABB68BA6A0E010A
:101BE800C993800EBC6E1200800EA16E7F0EA06E8F
:101BF800C00E9F6EAD503F0B8009AD6E1200800E77
:101C0800A46E7F0EA36EC00EA26EAD50CF0B20093E
:101C1800AD6E12008C0EA76E010EA66EA568AD50B3
:101C2800F30B0809AD6E12008C0EAB6E010EAA6E96
:101C3800A968AD50FC0B0209AD6E120095BA1200EE
:101C4800946A060E9512810E966E958A1200610EA0
:101C58000E01D36FD56BD76B060ED96FD86B1200F8
:101C6800016E000E0124D96EDA6A020EDA22DF5004
:101C7800120001D057065750800A7F0FD8A01200D3
:101C8800F9D70001DA6FDAC05AFF0F015B8F5B8169
:101C980012000E01DC6BDD6BDE6BDF6BE06BE16B62
:101CA800120094A804D00001D46B010E1200000E9B
:101CB80012000001DA6F0001DA51DA25936E120082
:101CC8000001DA6F0001DA51DA25926E1200000184
:101CD800DB6F0001DB51BEEC0DF01200FF0EE3508C
:101CE800E66E6FEC0CF0E5521200FF0EE66EFF0E8A
:101CF800E66ECAEC0DF012000F012CAD02D0010EF9
:101D08001200000E12000F015BB102D0010E12008A
:101D1800000E1200946A060E9512810E966E959A20
:101D28001200B00E0F012E6F060E2F6F120094B026
:101D380002D0010E1200000E120094A002D0010E73
:101D48001200000E120094BA02D0010E1200000E0A
:101D5800120094A402D0010E1200000E1200DAC084
:101D6800C7F0DBC0C8F01200DAC0C1F0DBC0C2F0B7
:101D78001200DAC0C9F0DBC0CAF01200DAC0CBF03A
:101D8800DBC0CCF01200DAC0C3F0DBC0C4F0120034
:101D9800DAC0C5F0DBC0C6F01200DAC0F1F0DBC073
:101DA800F2F01200DAC0EFF0DBC0F0F01200DAC097
:101DB800EBF0DBC0ECF01200DAC0EDF0DBC0EEF0C7
:101DC8001200DAC0E9F0DBC0EAF01200026E02503D
:101DD80001EC0FF012002BEC0FF00001CF6F120096
:101DE8002BEC0FF00001CE6F12008A0E0F012C6F42
:101DF8001200595001EC0FF01200016E01C091FF62
:101E08001200016E01C02FFF12000E01C0811200E6
:101E18000001D45112000001D951120015EC0FF045
:101E28001200968A968812000E01C89112002BECB7
:101E38000FF01200ADEC0EF012009C989C88120076
:101E480094EC0DF01200F29A12009588120091504D
:061E58001200FFD712008A
:103EAE0000820F618C0F61870F61080F68090F6820
:103EBE000A0F680B0F680C0F68050F68060F68076E
:103ECE000F683018402050287038603002801288F9
:103EDE0022904160315821501148014072B862B0B1
:103EEE0052A8417373657274696F6E206661696C56
:103EFE0065643A202573202825733A2025733A20CD
:103F0E002564290A00616E616C6F675F73656C656D
:103F1E0063745F706F735F7265665F69647800616A
:103F2E006E616C6F675F6765745F6164635F766116
:103F3E006C5F69647800706F72744E6F203C204520
:103F4E0058505F504F5254535F434E5400706F722F
:103F5E00744E6F203C20654558505F504F52545F51
:103F6E00434E54007265674E6F203C206552656764
:103F7E00697374657273434E5400696478203C20F3
:103F8E004558505F50494E535F434F554E54007045
:103F9E00696E4E6F203C20654558505F50494E5F0C
:103FAE00434E540046616E63792049324320457872
:103FBE0074656E6465720D0A007265676973746567
:103FCE0072732E6300616E616C6F672E63005772A1
:103FDE006974655265670057726974654269740049
:103FEE00526561645265670052656164426974008E
:013FFE0000C2
:020000040030CA
:0C000000ECFFFFFF9FFFFFFFFFFFFFFF73
:00000001FF
